:100000000C942A000C94A41C0C94C01C0C94EF1C9F
:100010000C9447000C9447000C9447000C94470044
:100020000C9447000C94221C0C9447000C9447003D
:100030000C9447000C9447000C9447000C94470024
:100040000C9447000C9447000C9447000C94470014
:100050000C94470011241FBECFE5D8E0DEBFCDBF12
:1000600010E0A0E6B0E0E0EDF6E402C005900D92ED
:10007000A43DB107D9F710E0A4EDB0E001C01D9296
:10008000AB3DB107E1F70E941E1D0C9466230C9452
:100090000000EF92FF920F931F937B018C0120E0F1
:1000A00030E040E05FE40E94490388238CF0C801FF
:1000B000B70120E030E040E05FE40E94C1010E940F
:1000C000A9039B01AC01205030404040504806C07D
:1000D000C801B7010E94A9039B01AC01B901CA0183
:1000E0001F910F91FF90EF900895A0E0B0E0EBE733
:1000F000F0E00C942F23DC012B01FA019C9192304B
:1001000008F439C1EB018881823008F433C194309E
:1001100069F4843009F02FC111969C91119789815F
:10012000981709F428C1A6EAB0E025C1843009F483
:1001300021C18230A9F4923009F01DC19A01AD01AC
:1001400088E0EA010990AE01E90109929E0181501F
:10015000C1F7E201898111969C918923818308C1AD
:10016000923009F407C112962D903C901397EB0141
:100170008A819B811496AD90BD90CD90DC901797AD
:10018000EC80FD800E811F819101281B390BB90184
:1001900037FF04C066277727621B730B6032710537
:1001A0000CF061C0121613066CF537014801062EDB
:1001B00004C096948794779467940A94D2F721E0C8
:1001C00030E040E050E004C0220F331F441F551FB1
:1001D0006A95D2F721503040404050402E213F21B7
:1001E00040235123211531054105510521F021E01E
:1001F00030E040E050E079018A01E628F72808293C
:1002000019293CC0232BD1F1260E371E350146019A
:10021000062E04C096948794779467940A94D2F734
:1002200021E030E040E050E004C0220F331F441FC3
:10023000551F6A95D2F721503040404050402A2146
:100240003B214C215D21211531054105510521F04E
:1002500021E030E040E050E059016A01A628B728CB
:10026000C828D9280BC0821593052CF01C01AA249C
:10027000BB24650103C0EE24FF24870111969C91E5
:10028000D20111968C91981709F445C0992339F041
:10029000A80197012A193B094C095D0906C0A6016E
:1002A00095012E193F09400B510B57FD08C01182D3
:1002B0003382228224833583468357831DC081E0A5
:1002C00081833382228288279927DC01821B930B4A
:1002D000A40BB50B84839583A683B7830DC0220F2F
:1002E000331F441F551F24833583468357838281E0
:1002F000938101979383828324813581468157813D
:10030000DA01C9010197A109B1098F5F9F4FAF4F72
:10031000BF4328F30BC0918333822282EA0CFB1C7B
:100320000C1D1D1DE482F5820683178383E0808304
:10033000248135814681578157FF1AC0C901AA27F8
:1003400097FDA095BA2F81709070A070B0705695EF
:10035000479537952795822B932BA42BB52B848318
:100360009583A683B7838281938101969383828349
:10037000DF0101C0D201CD01CDB7DEB7E2E10C94BF
:100380004B23A0E2B0E0E7ECF1E00C943B2369835F
:100390007A838B839C832D833E834F835887E9E048
:1003A000EE2EF12CEC0EFD1ECE010196B7010E943F
:1003B000D2048E010F5E1F4FCE010596B8010E9438
:1003C000D2048A8991E089278A8BC701B801AE01DE
:1003D000475E5F4F0E9475000E94FD03A096E6E015
:1003E0000C945723A0E2B0E0E8EFF1E00C943B233B
:1003F00069837A838B839C832D833E834F835887C5
:10040000F9E0EF2EF12CEC0EFD1ECE010196B701A6
:100410000E94D2048E010F5E1F4FCE010596B801D7
:100420000E94D204C701B801AE01475E5F4F0E942F
:1004300075000E94FD03A096E6E00C945723A0E20D
:10044000B0E0E5E2F2E00C942F2369837A838B839A
:100450009C832D833E834F835887CE010196BE0136
:10046000675F7F4F0E94D204CE010596BE016F5E8A
:100470007F4F0E94D2049985923088F0898982301A
:10048000C8F0943019F4823051F404C0843029F457
:10049000923081F486EA90E0C6C0923049F420E0C0
:1004A0009A858A89981321E02A87CE010996BBC0D4
:1004B000823049F420E09A858A89981321E02A8BBA
:1004C000CE014196B0C02D843E844F8458886D88FB
:1004D0007E888F88988CEE24FF248701AA24BB2471
:1004E000650140E050E060E070E0E0E0F0E0C10174
:1004F00081709070892BE9F0E60CF71C081D191D1E
:100500009A01AB012A0D3B1D4C1D5D1D80E090E062
:10051000A0E0B0E0E614F7040805190520F481E036
:1005200090E0A0E0B0E0BA01A901480F591F6A1F8E
:100530007B1FAA0CBB1CCC1CDD1C97FE08C081E0F5
:1005400090E0A0E0B0E0A82AB92ACA2ADB2A3196B6
:10055000E032F10549F0660C771C881C991C569412
:10056000479437942794C3CFFA85EA892B893C892D
:100570008B859C85280F391F2E5F3F4F17C0CA01FE
:1005800081709070892B61F016950795F794E79428
:1005900080E090E0A0E0B0E8E82AF92A0A2B1B2BC3
:1005A00076956795579547952F5F3F4F77FDE7CF36
:1005B0000CC0440F551F661F771F17FD4160EE0CDE
:1005C000FF1C001F111F21503040403090E05907A0
:1005D00090E0690790E4790760F32B8F3C8FDB0193
:1005E000CA018F779070A070B07080349105A1051A
:1005F000B10561F447FD0AC0E114F10401051105DC
:1006000029F0405C5F4F6F4F7F4F40781A8EFE1786
:1006100011F081E08A8F4D8F5E8F6F8F78A383E01A
:10062000898FCE0149960E94FD03A096E2E10C94C9
:100630004B23A8E1B0E0EFE1F3E00C943B236983A6
:100640007A838B839C832D833E834F83588789E0F5
:10065000E82EF12CEC0EFD1ECE010196B7010E9492
:10066000D2048E010F5E1F4FCE010596B8010E9485
:10067000D2048985823040F08989823028F0C70110
:10068000B8010E944A0501C08FEF6896E6E00C941D
:100690005723A8E1B0E0EFE4F3E00C943B23698337
:1006A0007A838B839C832D833E834F83588789E095
:1006B000E82EF12CEC0EFD1ECE010196B7010E9432
:1006C000D2048E010F5E1F4FCE010596B8010E9425
:1006D000D2048985823040F08989823028F0C701B0
:1006E000B8010E944A0501C08FEF6896E6E00C94BD
:1006F0005723A8E1B0E0EFE7F3E00C943B236983D4
:100700007A838B839C832D833E834F83588789E034
:10071000E82EF12CEC0EFD1ECE010196B7010E94D1
:10072000D2048E010F5E1F4FCE010596B8010E94C4
:10073000D2048985823040F08989823028F0C7014F
:10074000B8010E944A0501C081E06896E6E00C9479
:100750005723ACE0B0E0EFEAF3E00C943F23698369
:100760007A838B839C83CE010196BE016B5F7F4FA2
:100770000E94D2048D81823061F1823050F1843048
:1007800021F48E81882351F12EC02F81388537FDC9
:1007900020C06E812F3131051CF06623F9F023C093
:1007A0008EE190E0821B930B29853A854B855C8511
:1007B00004C056954795379527958A95D2F76623B5
:1007C000B1F050954095309521953F4F4F4F5F4F79
:1007D0000EC020E030E040E050E009C02FEF3FEFD6
:1007E0004FEF5FE704C020E030E040E050E8B9019F
:1007F000CA012C96E2E00C945B23DF92EF92FF9209
:100800000F931F93FC01E480F58006811781D1804E
:100810008081823048F480E090E0A0E1B0E0E82AF6
:10082000F92A0A2B1B2BA5C0843009F49FC0823003
:1008300021F4EE24FF24870105C0E114F104010531
:10084000110519F4E0E0F0E096C0628173819FEF3A
:10085000623879070CF05BC022E83FEF261B370BAC
:100860002A3131052CF020E030E040E050E02AC091
:10087000B801A701022E04C0769567955795479554
:100880000A94D2F781E090E0A0E0B0E004C0880FC5
:10089000991FAA1FBB1F2A95D2F70197A109B10979
:1008A0008E219F21A023B1230097A105B10521F03E
:1008B00081E090E0A0E0B0E09A01AB01282B392B59
:1008C0004A2B5B2BDA01C9018F779070A070B07052
:1008D00080349105A105B10539F427FF09C0205CDA
:1008E0003F4F4F4F5F4F04C0215C3F4F4F4F5F4F13
:1008F000E0E0F0E02030A0E03A07A0E04A07A0E402
:100900005A0710F0E1E0F0E079018A0127C0603871
:10091000710564F5FB01E158FF4FD801C7018F77DE
:100920009070A070B07080349105A105B10539F4C4
:10093000E7FE0DC080E490E0A0E0B0E004C08FE3EB
:1009400090E0A0E0B0E0E80EF91E0A1F1B1F17FFA1
:1009500005C016950795F794E794319687E01695AC
:100960000795F794E7948A95D1F705C0EE24FF2404
:100970008701EFEFF0E06E2F679566276795902F60
:100980009F77D794DD24D7948E2F8695492F462BB9
:10099000582F5D29B701CA011F910F91FF90EF9069
:1009A000DF900895FC01DB01408151812281622F9B
:1009B0006F7770E0221F2227221F9381892F880FD3
:1009C000822B282F30E0991F9927991F11969C930D
:1009D000119721153105A9F54115510561057105DD
:1009E00011F482E037C082E89FEF13969C938E93B8
:1009F00012979A01AB0167E0220F331F441F551F66
:100A00006A95D1F783E08C930DC0220F331F441FEA
:100A1000551F12968D919C911397019713969C9355
:100A20008E931297203080E0380780E0480780E4FA
:100A3000580758F314962D933D934D935C93179755
:100A400008952F3F310579F4411551056105710570
:100A500019F484E08C93089564FF03C081E08C93C3
:100A600012C01C9210C02F57304013963C932E9307
:100A7000129783E08C9387E0440F551F661F771F02
:100A80008A95D1F7706414964D935D936D937C9322
:100A9000179708951F93DC01FB019C91923008F495
:100AA00047C08081823008F443C0943051F41196DD
:100AB0001C91843099F58181682F70E0611B710968
:100AC0003FC0843021F0923031F48230B9F181811D
:100AD000882389F12DC011961C9111978230F1F075
:100AE00081811817D9F412962D913C911397828128
:100AF00093818217930794F028173907BCF0149656
:100B00008D919D910D90BC91A02D248135814681C0
:100B10005781281739074A075B0718F4112341F05A
:100B20000AC082179307A407B50740F4112319F0F0
:100B300061E070E005C06FEF7FEF02C060E070E041
:100B4000CB011F910895DF93CF9300D00F92CDB7C3
:100B5000DEB789838981282F30E03B832A838A810D
:100B60009B818330910509F470C02A813B81243038
:100B7000310584F48A819B8181309105D1F12A81EC
:100B80003B81223031050CF04AC08A819B8100975D
:100B9000D1F0C8C02A813B812530310509F481C0DC
:100BA0008A819B81853091050CF465C02A813B8147
:100BB0002630310509F48BC08A819B8187309105ED
:100BC00009F49BC0AFC0A1E4B0E0E1E4F0E08081B3
:100BD0008B7F8C93A1E4B0E0E1E4F0E080818D7F35
:100BE0008C93A1E4B0E0E1E4F0E080818E7F8C930F
:100BF00099C0A1E4B0E0E1E4F0E080818B7F8C93C8
:100C0000A1E4B0E0E1E4F0E080818D7F8C93A1E489
:100C1000B0E0E1E4F0E0808181608C9383C0A1E4E6
:100C2000B0E0E1E4F0E080818B7F8C93A1E4B0E060
:100C3000E1E4F0E0808182608C93A1E4B0E0E1E443
:100C4000F0E080818E7F8C936DC0A1E4B0E0E1E4A0
:100C5000F0E080818B7F8C93A1E4B0E0E1E4F0E0F0
:100C6000808182608C93A1E4B0E0E1E4F0E08081D7
:100C700081608C9357C0A1E4B0E0E1E4F0E08081B2
:100C800084608C93A1E4B0E0E1E4F0E080818D7FAA
:100C90008C93A1E4B0E0E1E4F0E080818E7F8C935E
:100CA00041C0A1E4B0E0E1E4F0E0808184608C9395
:100CB000A1E4B0E0E1E4F0E080818D7F8C93A1E4D9
:100CC000B0E0E1E4F0E0808181608C932BC0A1E48E
:100CD000B0E0E1E4F0E0808184608C93A1E4B0E0D6
:100CE000E1E4F0E0808182608C93A1E4B0E0E1E493
:100CF000F0E080818E7F8C9315C0A1E4B0E0E1E448
:100D0000F0E0808184608C93A1E4B0E0E1E4F0E065
:100D1000808182608C93A1E4B0E0E1E4F0E0808126
:100D200081608C930F900F900F90CF91DF91089579
:100D3000DF93CF93CDB7DEB7A1E4B0E0E1E4F0E01C
:100D4000808188608C93CF91DF910895DF93CF935A
:100D5000CDB7DEB7A1E4B0E0E1E4F0E08081877FC9
:100D60008C93A1E4B0E0E1E4F0E0808180618C93B9
:100D7000CF91DF910895DF93CF93CDB7DEB7629720
:100D80000FB6F894DEBF0FBECDBF9A838983E98189
:100D9000FA818181282F30E03A8B298B89899A89C1
:100DA000009739F029893A892130310509F494C036
:100DB00026C1ABE2B0E0EBE2F0E080818D7F8C9366
:100DC000E981FA818081282F30E0388B2F878F8549
:100DD00098898430910509F457C02F8538892530CA
:100DE0003105D4F48F85988981309105A9F12F853B
:100DF0003889223031052CF48F859889009721F1AC
:100E0000FEC02F8538892230310571F18F85988990
:100E10008330910589F1F3C02F853889263031055B
:100E200009F442C08F85988986309105ACF12F85F1
:100E300038892730310509F43FC08F85988988307B
:100E4000910509F441C0DBC0E9E2F0E08FEC80835A
:100E5000E0E4F0E01082D3C0E9E2F0E087E68083CE
:100E6000E0E4F0E01082CBC0E9E2F0E083E38083CD
:100E7000E0E4F0E01082C3C0E9E2F0E082E28083C7
:100E8000E0E4F0E01082BBC0E9E2F0E089E18083B9
:100E9000E0E4F0E01082B3C0E9E2F0E080E18083BA
:100EA000E0E4F0E01082ABC0E9E2F0E08CE08083A7
:100EB000E0E4F0E01082A3C0E9E2F0E088E08083A3
:100EC000E0E4F0E010829BC0E9E2F0E086E080839D
:100ED000E0E4F0E0108293C0ABE2B0E0EBE2F0E0DF
:100EE000808182608C93E981FA818081282F30E0B3
:100EF0003E872D878D859E858430910509F458C0E5
:100F00002D853E8525303105D4F48D859E85813033
:100F10009105B1F12D853E85223031052CF48D856A
:100F20009E85009721F16BC02D853E8522303105CD
:100F300079F18D859E858330910591F160C02D8575
:100F40003E852630310509F443C08D859E85863067
:100F50009105B4F12D853E852730310509F440C057
:100F60008D859E858830910509F442C048C0E9E22C
:100F7000F0E080EA8083E0E4F0E081E080833FC03D
:100F8000E9E2F0E08FEC8083E0E4F0E0108237C02B
:100F9000E9E2F0E087E68083E0E4F0E010822FC031
:100FA000E9E2F0E084E48083E0E4F0E0108227C02E
:100FB000E9E2F0E083E38083E0E4F0E010821FC028
:100FC000E9E2F0E082E28083E0E4F0E0108217C022
:100FD000E9E2F0E089E18083E0E4F0E010820FC014
:100FE000E9E2F0E080E18083E0E4F0E0108207C015
:100FF000E9E2F0E08CE08083E0E4F0E010828091B0
:10100000D40080688093D400E981FA818281282FFE
:1010100030E03C872B878B859C85009759F02B858A
:101020003C852130310559F48091D400806480934F
:10103000D40005C08091D4008F7B8093D400E981D7
:10104000FA818481282F30E03A87298789859A851B
:1010500081309105A1F029853A8522303105D1F002
:1010600089859A85009701F58091D4008F7D8093C2
:10107000D4008091D4008F7E8093D40015C08091DD
:10108000D40080628093D4008091D4008F7E8093BE
:10109000D4000AC08091D40080628093D4008091F3
:1010A000D40080618093D400E981FA818581282F62
:1010B00030E038872F838F819885009731F02F811A
:1010C00038852130310539F00BC08091D400877FFD
:1010D0008093D40005C08091D40088608093D400B0
:1010E000E981FA818681282F30E03E832D838D812E
:1010F0009E818230910509F43FC02D813E812330CD
:10110000310554F48D819E81009791F02D813E81AF
:1011100021303105F9F065C08D819E8183309105C4
:10112000E9F12D813E812430310509F449C059C0CF
:10113000AAE2B0E0EAE2F0E080818B7F8C938091BC
:10114000D4008B7F8093D4008091D4008D7F8093D6
:10115000D40047C0AAE2B0E0EAE2F0E080818B7FF1
:101160008C938091D4008B7F8093D4008091D400A5
:1011700082608093D40035C0AAE2B0E0EAE2F0E0F9
:1011800080818B7F8C938091D40084608093D40085
:101190008091D4008D7F8093D40023C0AAE2B0E078
:1011A000EAE2F0E080818B7F8C938091D4008460B0
:1011B0008093D4008091D40082608093D40011C0C9
:1011C000AAE2B0E0EAE2F0E0808184608C93809152
:1011D000D40084608093D4008091D4008260809396
:1011E000D400E981FA818381282F30E03C832B836E
:1011F0008B819C818130910579F02B813C8122305B
:10120000310581F08B819C81009789F48091D40015
:101210008E7F8093D4000BC08091D4008160809336
:10122000D40005C08091D4008E7F8093D400EBE27F
:10123000F0E08091D4008083AAE2B0E0EAE2F0E03E
:10124000808180618C93AAE2B0E0EAE2F0E08081E4
:1012500088608C9362960FB6F894DEBF0FBECDBF48
:10126000CF91DF910895DF93CF930F92CDB7DEB783
:101270008983EBE2F0E08081829586958770882FE4
:1012800090E0817090700097A1F3ECE2F0E089812A
:1012900080830F90CF91DF910895DF93CF930F92CA
:1012A000CDB7DEB7EBE2F0E080818823DCF7ECE23B
:1012B000F0E08081898389810F90CF91DF9108953B
:1012C000DF93CF93CDB7DEB76C970FB6F894DEBF40
:1012D0000FBECDBF9A838983E981FA818081282F4F
:1012E00030E03C8F2B8F8B8D9C8D009739F02B8DB0
:1012F0003C8D2130310509F4E3C1C2C3E981FA8193
:101300008181282F30E03A8F298F898D9A8D813005
:10131000910509F497C0298D3A8D223031052CF4BE
:10132000898D9A8D009771F0ABC3298D3A8D22304B
:10133000310509F466C1898D9A8D8330910509F4D0
:1013400001C19EC3AEE4B0E0EEE4F0E080818F7EA8
:101350008C93AEE4B0E0EEE4F0E08081877F8C9384
:10136000AFE4B0E0EFE4F0E080818D7F8C93AFE4F8
:10137000B0E0EFE4F0E080818E7F8C93E981FA8128
:101380008281282F30E0388F2F8B8F89988D813084
:10139000910559F12F89388D223031052CF48F8930
:1013A000988D009761F06CC32F89388D22303105FC
:1013B00059F18F89988D83309105A9F161C3AFE40C
:1013C000B0E0EFE4F0E080818F778C93AFE4B0E0A1
:1013D000EFE4F0E080818F7B8C93A9E5B0E0E9E554
:1013E000F0E0808184608C934BC3AFE4B0E0EFE425
:1013F000F0E080818F778C93AFE4B0E0EFE4F0E031
:10140000808180648C933CC3AFE4B0E0EFE4F0E013
:10141000808180688C93AFE4B0E0EFE4F0E08081FD
:101420008F7B8C932DC3AFE4B0E0EFE4F0E08081DC
:1014300080688C93AFE4B0E0EFE4F0E080818064FA
:101440008C931EC3AEE4B0E0EEE4F0E080818F7ECA
:101450008C93AEE4B0E0EEE4F0E0808188608C93A1
:10146000AFE4B0E0EFE4F0E080818D7F8C93AFE4F7
:10147000B0E0EFE4F0E080818E7F8C93E981FA8127
:101480008281282F30E03E8B2D8B8D899E89813083
:10149000910559F12D893E89223031052CF48D8931
:1014A0009E89009761F0ECC22D893E89223031057A
:1014B00059F18D899E8983309105A9F1E1C2AFE48C
:1014C000B0E0EFE4F0E080818F778C93AFE4B0E0A0
:1014D000EFE4F0E080818F7B8C93A9E5B0E0E9E553
:1014E000F0E0808180618C93CBC2AFE4B0E0EFE4A8
:1014F000F0E080818F778C93AFE4B0E0EFE4F0E030
:10150000808180648C93BCC2AFE4B0E0EFE4F0E093
:10151000808180688C93AFE4B0E0EFE4F0E08081FC
:101520008F7B8C93ADC2AFE4B0E0EFE4F0E080815C
:1015300080688C93AFE4B0E0EFE4F0E080818064F9
:101540008C939EC2AEE4B0E0EEE4F0E08081806176
:101550008C93AEE4B0E0EEE4F0E0808188608C93A0
:10156000AFE4B0E0EFE4F0E0808182608C93AFE420
:10157000B0E0EFE4F0E080818E7F8C93E981FA8126
:101580008281282F30E03C8B2B8B8B899C8981308A
:101590009105C9F02B893C892230310519F18B89DD
:1015A0009C89009709F06CC2AFE4B0E0EFE4F0E092
:1015B00080818F778C93AFE4B0E0EFE4F0E080813E
:1015C0008F7B8C935DC2AFE4B0E0EFE4F0E080810C
:1015D00080688C93AFE4B0E0EFE4F0E080818F7B33
:1015E0008C934EC2AFE4B0E0EFE4F0E0808180681D
:1015F0008C93AFE4B0E0EFE4F0E0808180648C9302
:101600003FC2AEE4B0E0EEE4F0E0808180618C9314
:10161000AEE4B0E0EEE4F0E08081877F8C93AFE44D
:10162000B0E0EFE4F0E0808182608C93AFE4B0E062
:10163000EFE4F0E080818E7F8C93E981FA818281F2
:10164000282F30E03A8B298B89899A89813091053E
:10165000C9F029893A892230310519F189899A8995
:10166000009709F00DC2AFE4B0E0EFE4F0E0808154
:101670008F778C93AFE4B0E0EFE4F0E080818F7B74
:101680008C93FEC1AFE4B0E0EFE4F0E080818068CD
:101690008C93AFE4B0E0EFE4F0E080818F7B8C933B
:1016A000EFC1AFE4B0E0EFE4F0E0808180688C93BC
:1016B000AFE4B0E0EFE4F0E0808180648C93E0C1BF
:1016C000E981FA818181282F30E0388B2F878F853F
:1016D00098898130910509F497C02F853889223087
:1016E00031052CF48F859889009771F0C9C12F8539
:1016F00038892230310509F466C18F859889833095
:10170000910509F401C1BCC1AEE4B0E0EEE4F0E043
:1017100080818F7E8C93AEE4B0E0EEE4F0E08081D7
:10172000877F8C93AFE4B0E0EFE4F0E080818D7FC1
:101730008C93AFE4B0E0EFE4F0E080818E7F8C9397
:10174000E981FA818281282F30E03E872D878D85BF
:101750009E858130910559F12D853E8522303105D8
:101760002CF48D859E85009761F08AC12D853E857C
:101770002230310559F18D859E8583309105A9F17F
:101780007FC1AFE4B0E0EFE4F0E080818F7D8C9327
:10179000AFE4B0E0EFE4F0E080818F7E8C93A9E5C8
:1017A000B0E0E9E5F0E0808184608C9369C1AFE44A
:1017B000B0E0EFE4F0E080818F7D8C93AFE4B0E0A7
:1017C000EFE4F0E0808180618C935AC1AFE4B0E037
:1017D000EFE4F0E0808180628C93AFE4B0E0EFE46E
:1017E000F0E080818F7E8C934BC1AFE4B0E0EFE4FA
:1017F000F0E0808180628C93AFE4B0E0EFE4F0E051
:10180000808180618C933CC1AEE4B0E0EEE4F0E016
:1018100080818F7E8C93AEE4B0E0EEE4F0E08081D6
:1018200088608C93AFE4B0E0EFE4F0E080818D7FDE
:101830008C93AFE4B0E0EFE4F0E080818E7F8C9396
:10184000E981FA818281282F30E03C872B878B85C4
:101850009C858130910559F12B853C8522303105DD
:101860002CF48B859C85009761F00AC12B853C8503
:101870002230310559F18B859C8583309105A9F182
:10188000FFC0AFE4B0E0EFE4F0E080818F7D8C93A7
:10189000AFE4B0E0EFE4F0E080818F7E8C93A9E5C7
:1018A000B0E0E9E5F0E0808188608C93E9C0AFE4C6
:1018B000B0E0EFE4F0E080818F7D8C93AFE4B0E0A6
:1018C000EFE4F0E0808180618C93DAC0AFE4B0E0B7
:1018D000EFE4F0E0808180628C93AFE4B0E0EFE46D
:1018E000F0E080818F7E8C93CBC0AFE4B0E0EFE47A
:1018F000F0E0808180628C93AFE4B0E0EFE4F0E050
:10190000808180618C93BCC0AEE4B0E0EEE4F0E096
:10191000808180618C93AEE4B0E0EEE4F0E0808101
:1019200088608C93AFE4B0E0EFE4F0E08081826007
:101930008C93AFE4B0E0EFE4F0E080818E7F8C9395
:10194000E981FA818281282F30E03A8729878985C9
:101950009A8581309105C9F029853A852230310573
:1019600019F189859A85009709F08AC0AFE4B0E043
:10197000EFE4F0E080818F7D8C93AFE4B0E0EFE4A2
:10198000F0E080818F7E8C937BC0AFE4B0E0EFE429
:10199000F0E0808180628C93AFE4B0E0EFE4F0E0AF
:1019A00080818F7E8C936CC0AFE4B0E0EFE4F0E018
:1019B000808180628C93AFE4B0E0EFE4F0E080815E
:1019C00080618C935DC0AEE4B0E0EEE4F0E0808135
:1019D00080618C93AEE4B0E0EEE4F0E08081877F3C
:1019E0008C93AFE4B0E0EFE4F0E0808182608C9310
:1019F000AFE4B0E0EFE4F0E080818E7F8C93E9818A
:101A0000FA818281282F30E038872F838F81988553
:101A100081309105C1F02F8138852230310511F1D7
:101A20008F819885009761F5AFE4B0E0EFE4F0E0D6
:101A300080818F7D8C93AFE4B0E0EFE4F0E08081B3
:101A40008F7E8C931DC0AFE4B0E0EFE4F0E08081C6
:101A500080628C93AFE4B0E0EFE4F0E080818F7EB1
:101A60008C930EC0AFE4B0E0EFE4F0E080818062E0
:101A70008C93AFE4B0E0EFE4F0E0808180618C9380
:101A8000E981FA818481282F30E03E832D838D8186
:101A90009E81009731F02D813E812130310549F042
:101AA0000FC0A9E5B0E0E9E5F0E0808184608C93A7
:101AB00007C0A9E5B0E0E9E5F0E080818B7F8C9379
:101AC000E981FA818381282F30E03C832B838B814D
:101AD0009C818230910509F44EC02B813C812330DA
:101AE000310554F48B819C810097C9F02B813C8196
:101AF0002130310551F196C08B819C818430910554
:101B000009F465C02B813C81243031050CF449C0B7
:101B10008B819C818530910509F46FC083C0AEE450
:101B2000B0E0EEE4F0E080818B7F8C93AEE4B0E037
:101B3000EEE4F0E080818D7F8C93AEE4B0E0EEE4E3
:101B4000F0E080818E7F8C936DC0AEE4B0E0EEE477
:101B5000F0E080818B7F8C93AEE4B0E0EEE4F0E0C7
:101B600080818D7F8C93AEE4B0E0EEE4F0E0808184
:101B700081608C9357C0AEE4B0E0EEE4F0E0808189
:101B80008B7F8C93AEE4B0E0EEE4F0E08081826085
:101B90008C93AEE4B0E0EEE4F0E080818E7F8C9335
:101BA00041C0AEE4B0E0EEE4F0E080818B7F8C9346
:101BB000AEE4B0E0EEE4F0E0808182608C93AEE4CD
:101BC000B0E0EEE4F0E0808181608C932BC0AEE465
:101BD000B0E0EEE4F0E0808184608C93AEE4B0E0AD
:101BE000EEE4F0E080818D7F8C93AEE4B0E0EEE433
:101BF000F0E080818E7F8C9315C0AEE4B0E0EEE41F
:101C0000F0E0808184608C93AEE4B0E0EEE4F0E03C
:101C100080818D7F8C93AEE4B0E0EEE4F0E08081D3
:101C200081608C936C960FB6F894DEBF0FBECDBF6B
:101C3000CF91DF910895DF93CF93CDB7DEB72A9789
:101C40000FB6F894DEBF0FBECDBF9A838983E981BA
:101C5000FA818081282F30E03A87298789859A8503
:101C6000009731F029853A852130310549F00FC0C0
:101C7000ACE2B0E0ECE2F0E0808180628C9307C0DF
:101C8000ACE2B0E0ECE2F0E080818F7D8C93E98102
:101C9000FA818181282F30E038872F838F819885C2
:101CA000009731F02F8138852130310549F00FC080
:101CB000ACE2B0E0ECE2F0E0808188608C9307C099
:101CC000ACE2B0E0ECE2F0E08081877F8C93E981C8
:101CD000FA818281282F30E03E832D838D819E8181
:101CE000009731F02D813E812130310549F00FC040
:101CF000ACE2B0E0ECE2F0E080818B7F8C9307C037
:101D0000ACE2B0E0ECE2F0E0808184608C93E981A9
:101D1000FA818381282F30E03C832B838B819C8147
:101D20008330910509F46AC02B813C812430310550
:101D300084F48B819C8181309105A1F12B813C81C0
:101D4000223031050CF044C08B819C810097A1F0BA
:101D5000ACC02B813C812530310509F47BC08B81DF
:101D60009C81853091050CF45FC02B813C8126302D
:101D7000310509F485C099C0ACE2B0E0ECE2F0E0D6
:101D8000808181608C93ACE2B0E0ECE2F0E0808195
:101D90008D7F8C93ACE2B0E0ECE2F0E080818E7F4E
:101DA0008C9383C0ACE2B0E0ECE2F0E080818E7F07
:101DB0008C93ACE2B0E0ECE2F0E080818D7F8C931C
:101DC000ACE2B0E0ECE2F0E080818E7F8C936DC0FD
:101DD000ACE2B0E0ECE2F0E0808181608C93ACE2B8
:101DE000B0E0ECE2F0E080818D7F8C93ACE2B0E07B
:101DF000ECE2F0E0808181608C9357C0ACE2B0E00F
:101E0000ECE2F0E080818E7F8C93ACE2B0E0ECE21B
:101E1000F0E080818D7F8C93ACE2B0E0ECE2F0E00A
:101E2000808181608C9341C0ACE2B0E0ECE2F0E0F4
:101E3000808181608C93ACE2B0E0ECE2F0E08081E4
:101E400082608C93ACE2B0E0ECE2F0E080818E7FC7
:101E50008C932BC0ACE2B0E0ECE2F0E080818E7FAE
:101E60008C93ACE2B0E0ECE2F0E0808182608C9395
:101E7000ACE2B0E0ECE2F0E080818E7F8C9315C0A4
:101E8000ACE2B0E0ECE2F0E080818E7F8C93ACE2DB
:101E9000B0E0ECE2F0E0808182608C93ACE2B0E0F4
:101EA000ECE2F0E0808181608C93ACE2B0E0ECE2A7
:101EB000F0E0808180618C93ACE2B0E0ECE2F0E095
:101EC000808180648C932A960FB6F894DEBF0FBE93
:101ED000CDBFCF91DF910895DF93CF93CDB7DEB71C
:101EE00028970FB6F894DEBF0FBECDBF9A838983C3
:101EF000E981FA818081282F30E038872F838F8114
:101F00009885009731F02F8138852130310549F0CF
:101F10000FC0ACE2B0E0ECE2F0E0808180628C9334
:101F200007C0ACE2B0E0ECE2F0E080818F7D8C9302
:101F3000E981FA818181282F30E03E832D838D81D4
:101F40009E81009731F02D813E812130310549F08D
:101F50000FC0ACE2B0E0ECE2F0E0808188608C93EE
:101F600007C0ACE2B0E0ECE2F0E08081877F8C93C8
:101F7000E981FA818281282F30E03C832B838B8199
:101F80009C81009731F02B813C812130310549F053
:101F90000FC0ACE2B0E0ECE2F0E080818B7F8C938C
:101FA00007C0ACE2B0E0ECE2F0E0808184608C93AA
:101FB000ACE2B0E0ECE2F0E080818F7E8C93ACE2AA
:101FC000B0E0ECE2F0E0808180648C9328960FB65C
:101FD000F894DEBF0FBECDBFCF91DF910895DF93A0
:101FE000CF930F92CDB7DEB78983EBE2F0E0898122
:101FF0008083ECE2F0E080818823DCF7EBE2F0E024
:1020000080810F90CF91DF910895DF93CF93CDB76B
:10201000DEB7AFE5B0E0EFE5F0E0808180688C935B
:10202000CF91DF910895DF93CF93CDB7DEB7AFE5C2
:10203000B0E0EFE5F0E080818F778C93CF91DF9176
:102040000895DF93CF93CDB7DEB72A970FB6F894F4
:10205000DEBF0FBECDBF89836A838981282F30E020
:102060003A87298789859A858130910509F46DC061
:1020700029853A852230310509F4C9C089859A85B8
:10208000009709F0EAC0ABE5B0E0EBE5F0E0808155
:1020900080648C938A81282F30E038872F838F814A
:1020A00098858130910521F12F81388522303105C5
:1020B0002CF48F819885009761F0CFC02F813885EF
:1020C0002230310521F18F8198858330910571F19E
:1020D000C4C0A5E5B0E0E5E5F0E080818D7F8C939C
:1020E000A5E5B0E0E5E5F0E080818E7F8C93B5C09A
:1020F000A5E5B0E0E5E5F0E080818D7F8C93A5E576
:10210000B0E0E5E5F0E0808181608C93A6C0A5E5B4
:10211000B0E0E5E5F0E0808182608C93A5E5B0E079
:10212000E5E5F0E080818E7F8C9397C0A5E5B0E077
:10213000E5E5F0E0808182608C93A5E5B0E0E5E51F
:10214000F0E0808181608C9388C0ABE5B0E0EBE586
:10215000F0E0808180688C938A81282F30E03E8374
:102160002D838D819E818130910521F12D813E81CC
:10217000223031052CF48D819E81009761F06DC075
:102180002D813E812230310521F18D819E81833068
:10219000910571F162C0A5E5B0E0E5E5F0E0808170
:1021A000877F8C93A5E5B0E0E5E5F0E080818B7F4B
:1021B0008C9353C0A5E5B0E0E5E5F0E08081877F32
:1021C0008C93A5E5B0E0E5E5F0E0808184608C9338
:1021D00044C0A5E5B0E0E5E5F0E0808188608C933F
:1021E000A5E5B0E0E5E5F0E080818B7F8C9335C01C
:1021F000A5E5B0E0E5E5F0E0808188608C93A5E599
:10220000B0E0E5E5F0E0808184608C9326C0ABE52A
:10221000B0E0EBE5F0E0808180628C938A81282F2A
:1022200030E03C832B838B819C818230910531F09F
:102230002B813C812330310549F00FC0A5E5B0E08A
:10224000E5E5F0E080818F7B8C9307C0A5E5B0E0E9
:10225000E5E5F0E0808180648C932A960FB6F894CF
:10226000DEBF0FBECDBFCF91DF910895DF93CF9337
:1022700000D00F92CDB7DEB789838981282F30E057
:102280003B832A838A819B818130910589F02A8151
:102290003B8122303105A1F08A819B810097B9F4FE
:1022A000ABE5B0E0EBE5F0E080818F7B8C930FC075
:1022B000ABE5B0E0EBE5F0E080818F778C9307C071
:1022C000ABE5B0E0EBE5F0E080818F7D8C930F9083
:1022D0000F900F90CF91DF910895DF93CF93CDB7FB
:1022E000DEB728970FB6F894DEBF0FBECDBF8A8346
:1022F0006B834C8319828A81843008F0EFC08B8114
:10230000883008F0EBC08C81813009F06FC08A8181
:10231000282F30E038872F838F8198858130910571
:1023200049F12F813885223031052CF48F81988531
:10233000009761F0D5C02F8138852230310571F1C9
:102340008F81988583309105E9F1CAC0ABE3B0E095
:10235000EBE3F0E08081482F8B81282F30E081E093
:1023600090E0022E02C0880F991F0A94E2F7842B96
:102370008C93B6C0A8E3B0E0E8E3F0E08081482F9A
:102380008B81282F30E081E090E0022E02C0880F80
:10239000991F0A94E2F7842B8C93A2C0A5E3B0E0C6
:1023A000E5E3F0E08081482F8B81282F30E081E049
:1023B00090E0022E02C0880F991F0A94E2F7842B46
:1023C0008C938EC0A2E3B0E0E2E3F0E08081482F7E
:1023D0008B81282F30E081E090E0022E02C0880F30
:1023E000991F0A94E2F7842B8C937AC08C818823FE
:1023F00009F076C08A81282F30E03E832D838D81BD
:102400009E818130910559F12D813E812230310527
:102410002CF48D819E81009769F062C02D813E81F0
:102420002230310589F18D819E818330910509F437
:1024300040C056C0ABE3B0E0EBE3F0E08081482F52
:102440008B81282F30E081E090E0022E02C0880FBF
:10245000991F0A94E2F7809584238C9341C0A8E3E6
:10246000B0E0E8E3F0E08081482F8B81282F30E056
:1024700081E090E0022E02C0880F991F0A94E2F7D3
:10248000809584238C932CC0A5E3B0E0E5E3F0E0D5
:102490008081482F8B81282F30E081E090E0022E50
:1024A00002C0880F991F0A94E2F7809584238C93C9
:1024B00017C0A2E3B0E0E2E3F0E08081482F8B8117
:1024C000282F30E081E090E0022E02C0880F991F93
:1024D0000A94E2F7809584238C9302C081E089837B
:1024E000898128960FB6F894DEBF0FBECDBFCF917D
:1024F000DF910895DF93CF93CDB7DEB728970FB65E
:10250000F894DEBF0FBECDBF8A836B834C831982E4
:102510008A81843008F0EFC08B81883008F0EBC0EE
:102520008C81813009F06FC08A81282F30E0388794
:102530002F838F8198858130910549F12F813885CE
:10254000223031052CF48F819885009761F0D5C039
:102550002F8138852230310571F18F819885833044
:102560009105E9F1CAC0AAE3B0E0EAE3F0E08081B6
:10257000482F8B81282F30E081E090E0022E02C0AE
:10258000880F991F0A94E2F7842B8C93B6C0A7E3B7
:10259000B0E0E7E3F0E08081482F8B81282F30E026
:1025A00081E090E0022E02C0880F991F0A94E2F7A2
:1025B000842B8C93A2C0A4E3B0E0E4E3F0E080813C
:1025C000482F8B81282F30E081E090E0022E02C05E
:1025D000880F991F0A94E2F7842B8C938EC0A1E395
:1025E000B0E0E1E3F0E08081482F8B81282F30E0DC
:1025F00081E090E0022E02C0880F991F0A94E2F752
:10260000842B8C937AC08C81882309F076C08A81D0
:10261000282F30E03E832D838D819E81813091056E
:1026200059F12D813E81223031052CF48D819E811E
:10263000009769F062C02D813E812230310589F119
:102640008D819E818330910509F440C056C0AAE374
:10265000B0E0EAE3F0E08081482F8B81282F30E062
:1026600081E090E0022E02C0880F991F0A94E2F7E1
:10267000809584238C9341C0A7E3B0E0E7E3F0E0CA
:102680008081482F8B81282F30E081E090E0022E5E
:1026900002C0880F991F0A94E2F7809584238C93D7
:1026A0002CC0A4E3B0E0E4E3F0E08081482F8B810C
:1026B000282F30E081E090E0022E02C0880F991FA1
:1026C0000A94E2F7809584238C9317C0A1E3B0E0CD
:1026D000E1E3F0E08081482F8B81282F30E081E01A
:1026E00090E0022E02C0880F991F0A94E2F78095AD
:1026F00084238C9302C081E08983898128960FB658
:10270000F894DEBF0FBECDBFCF91DF910895DF9368
:10271000CF9300D000D00F92CDB7DEB78A836B8302
:102720008A81843008F06CC08B81883008F068C0E2
:102730008A81282F30E03D832C834C815D8141309C
:10274000510541F18C819D818230910534F42C81B9
:102750003D812115310561F055C04C815D814230CC
:10276000510551F18C819D8183309105B9F14AC0A9
:10277000E9E3F0E08081282F30E08B81882F90E022
:10278000A90102C0559547958A95E2F7CA01817063
:10279000898338C0E6E3F0E08081282F30E08B8128
:1027A000882F90E0A90102C0559547958A95E2F7D8
:1027B000CA018170898326C0E3E3F0E08081282F7D
:1027C00030E08B81882F90E0A90102C05595479594
:1027D0008A95E2F7CA018170898314C0E0E3F0E0D2
:1027E0008081282F30E08B81882F90E0A90102C0E2
:1027F000559547958A95E2F7CA018170898302C091
:102800008FEF898389810F900F900F900F900F9019
:10281000CF91DF910895DF93CF9300D000D00F9236
:10282000CDB7DEB78A836B8319828A81843098F5AD
:102830008A81282F30E03D832C838C819D818130DB
:102840009105D1F02C813D81223031052CF48C8111
:102850009D81009761F021C02C813D81223031059E
:1028600081F08C819D818330910581F016C0EAE36F
:10287000F0E08B81808311C0E7E3F0E08B818083FF
:102880000CC0E4E3F0E08B81808307C0E1E3F0E07B
:102890008B81808302C081E0898389810F900F90B2
:1028A0000F900F900F90CF91DF910895DF93CF930A
:1028B00000D000D00F92CDB7DEB78A836B83198228
:1028C0008A81843098F58A81282F30E03D832C83DB
:1028D0008C819D8181309105D1F02C813D81223008
:1028E00031052CF48C819D81009761F021C02C81F1
:1028F0003D812230310581F08C819D8183309105AD
:1029000081F016C0EBE3F0E08B81808311C0E8E337
:10291000F0E08B8180830CC0E5E3F0E08B81808365
:1029200007C0E2E3F0E08B81808302C081E089830D
:1029300089810F900F900F900F900F90CF91DF91A2
:102940000895DF93CF93CDB7DEB728970FB6F894ED
:10295000DEBF0FBECDBF9A838983E981FA81808172
:10296000282F30E038872F838F819885813091051B
:10297000C1F02F8138852230310511F18F81988582
:10298000009761F5A7E2B0E0E7E2F0E080818F77A1
:102990008C93A7E2B0E0E7E2F0E080818F7B8C933C
:1029A0001DC0A7E2B0E0E7E2F0E080818F778C9372
:1029B000A7E2B0E0E7E2F0E0808180648C930EC093
:1029C000A7E2B0E0E7E2F0E0808180688C93A7E2C4
:1029D000B0E0E7E2F0E0808180648C93E981FA81E5
:1029E0008281282F30E03E832D838D819E81009748
:1029F00031F02D813E812130310549F00FC0A7E231
:102A0000B0E0E7E2F0E080818F7D8C9307C0A7E221
:102A1000B0E0E7E2F0E0808180628C93E981FA81A6
:102A20008381282F30E03C832B838B819C818330F2
:102A3000910509F46AC02B813C812430310584F46E
:102A40008B819C8181309105A1F12B813C812230C9
:102A500031050CF044C08B819C810097A1F0ACC083
:102A60002B813C812530310509F47BC08B819C8111
:102A7000853091050CF45FC02B813C8126303105F7
:102A800009F485C099C0A6E2B0E0E6E2F0E08081FA
:102A90008B7F8C93A6E2B0E0E6E2F0E080818D7F50
:102AA0008C93A6E2B0E0E6E2F0E080818E7F8C932A
:102AB00083C0A6E2B0E0E6E2F0E080818B7F8C93F9
:102AC000A6E2B0E0E6E2F0E0808182608C93A6E2CC
:102AD000B0E0E6E2F0E080818E7F8C936DC0A6E2EC
:102AE000B0E0E6E2F0E080818B7F8C93A6E2B0E07C
:102AF000E6E2F0E0808182608C93A6E2B0E0E6E25C
:102B0000F0E0808181608C9357C0A6E2B0E0E6E2FD
:102B1000F0E0808184608C93A6E2B0E0E6E2F0E031
:102B200080818D7F8C93A6E2B0E0E6E2F0E08081C8
:102B30008E7F8C9341C0A6E2B0E0E6E2F0E08081B7
:102B400084608C93A6E2B0E0E6E2F0E080818D7FC5
:102B50008C93A6E2B0E0E6E2F0E0808181608C93A5
:102B60002BC0A6E2B0E0E6E2F0E0808184608C93C6
:102B7000A6E2B0E0E6E2F0E0808182608C93A6E21B
:102B8000B0E0E6E2F0E080818E7F8C9315C0A6E293
:102B9000B0E0E6E2F0E0808184608C93A6E2B0E0F1
:102BA000E6E2F0E0808182608C93A6E2B0E0E6E2AB
:102BB000F0E0808181608C93A6E2B0E0E6E2F0E094
:102BC000808180688C9328960FB6F894DEBF0FBE84
:102BD000CDBFCF91DF910895DF93CF9300D000D088
:102BE00000D0CDB7DEB79A8389837C836B83E9817C
:102BF000FA818081282F30E03E832D838D819E8154
:102C000083309105D9F12D813E81243031057CF44A
:102C10008D819E818130910509F12D813E81223087
:102C2000310524F58D819E81009789F046C02D8164
:102C30003E812530310591F18D819E818530910550
:102C40002CF12D813E812630310581F136C0E7E23D
:102C5000F0E0A7E2B0E08C9180832FC0A7E2B0E063
:102C6000E7E2F0E0808181608C9327C0A7E2B0E0CA
:102C7000E7E2F0E0808182608C931FC0A7E2B0E0C1
:102C8000E7E2F0E0808183608C9317C0A7E2B0E0B8
:102C9000E7E2F0E0808184608C930FC0A7E2B0E0AF
:102CA000E7E2F0E0808185608C9307C0A7E2B0E0A6
:102CB000E7E2F0E0808186608C93A6E2B0E0E6E295
:102CC000F0E0808180648C93E6E2F0E08081829580
:102CD000869586958370882F90E081709070882308
:102CE00099F7E4E2F0E080819181EB81FC819183AE
:102CF000808326960FB6F894DEBF0FBECDBFCF916E
:102D0000DF910895DF93CF93CDB7DEB7A6E2B0E0B1
:102D1000E6E2F0E080818F778C93CF91DF91089588
:102D2000DF93CF9300D0CDB7DEB79A838983E98153
:102D3000FA818081E981FA819181692F40E00E94C6
:102D40007A12E981FA818081E981FA819181692F82
:102D500041E00E946D110F900F90CF91DF91089587
:102D6000DF93CF9300D0CDB7DEB79A838983E98113
:102D7000FA818081E981FA819181692F0E9487130C
:102D80000F900F90CF91DF910895DF93CF9300D0F4
:102D9000CDB7DEB79A838983E981FA8180816FEFAD
:102DA0000E940B140F900F90CF91DF910895DF9345
:102DB000CF9300D00F92CDB7DEB79A8389836B8310
:102DC000E981FA818181813039F4E981FA81808158
:102DD0006B810E9456140FC0E981FA81818188239A
:102DE00051F4E981FA8120818B81982F9095822F6F
:102DF000692F0E9456140F900F900F90CF91DF9182
:102E00000895DF93CF9300D0CDB7DEB79A8389833F
:102E1000E981FA818081E981FA819181692F41E01C
:102E20000E947A120F900F90CF91DF910895DF9357
:102E3000CF9300D0CDB7DEB79A838983E981FA8139
:102E40008281813079F4E981FA818081E981FA8196
:102E50009181692F41E00E946D11E981FA8181E041
:102E6000838312C0E981FA818281882369F4E98130
:102E7000FA818081E981FA819181692F40E00E9485
:102E80006D11E981FA8113820F900F90CF91DF913C
:102E90000895DF93CF9300D0CDB7DEB79A838983AF
:102EA000E981FA818281813071F4E981FA8180813E
:102EB000E981FA819181692F40E00E946D11E981D9
:102EC000FA81138213C0E981FA818281882371F427
:102ED000E981FA818081E981FA819181692F41E05C
:102EE0000E946D11E981FA8181E083830F900F9038
:102EF000CF91DF910895DF93CF9300D0CDB7DEB7A8
:102F00009A838983E981FA818281813039F5E98167
:102F1000FA818381882379F4E981FA818081E981CA
:102F2000FA819181692F41E00E946D11E981FA8156
:102F300081E083833EC0E981FA8183818130C9F5D4
:102F4000E981FA818081E981FA819181692F40E0EC
:102F50000E946D11E981FA8113822BC0E981FA8107
:102F60008281882331F5E981FA818381813071F48E
:102F7000E981FA818081E981FA819181692F40E0BC
:102F80000E946D11E981FA81138213C0E981FA81EF
:102F90008381882371F4E981FA818081E981FA8152
:102FA0009181692F41E00E946D11E981FA8181E0F0
:102FB00083830F900F90CF91DF910895DF93CF938C
:102FC000CDB7DEB760970FB6F894DEBF0FBECDBFAA
:102FD000988B8F87EF85F8898181EF85F8899481B7
:102FE000692F41E00E946D1180E090E0A0E0B0E424
:102FF0008B879C87AD87BE876B857C858D859E85FD
:1030000020E030E04AEF54E40E941F02DC01CB01D3
:103010008F839887A987BA876F81788589859A85F4
:1030200020E030E040E85FE30E94790388232CF43D
:1030300081E090E09E838D833FC06F817885898594
:103040009A8520E03FEF4FE757E40E9419031816D6
:103050004CF56B857C858D859E8520E030E040E2D7
:1030600051E40E941F02DC01CB01BC01CD010E9492
:103070004900DC01CB019E838D830FC088EC90E07A
:103080009C838B838B819C810197F1F79C838B833D
:103090008D819E8101979E838D838D819E81009776
:1030A00069F714C06F81788589859A850E944900E7
:1030B000DC01CB019E838D838D819E819A838983E0
:1030C00089819A810197F1F79A838983EF85F8893D
:1030D0008181EF85F8899481692F40E00E946D110C
:1030E00060960FB6F894DEBF0FBECDBFCF91DF91D3
:1030F0000895DF93CF9300D00F92CDB7DEB79A83B8
:1031000089836B83E981FA818181E981FA819281E6
:10311000692F40E00E946D11E981FA8180816B8105
:103120000E94561489819A810E94DE170F900F9099
:103130000F90CF91DF910895DF93CF9300D00F923E
:10314000CDB7DEB79A8389836B83E981FA81818168
:10315000E981FA819281692F41E00E946D11E98134
:10316000FA8180816B810E94561489819A810E9424
:10317000DE170F900F900F90CF91DF910895DF939E
:10318000CF93CDB7DEB7AC970FB6F894DEBF0FBEC6
:10319000CDBF9CA78BA7EBA5FCA58181EBA5FCA5CA
:1031A0009481692F41E00E947A12EBA5FCA58181F0
:1031B000EBA5FCA59281692F41E00E947A12EBA554
:1031C000FCA580816FEF0E940B1480E090E0A0EFDF
:1031D000B1E48FA398A7A9A7BAA76FA178A589A5DD
:1031E0009AA520E030E04AEF54E40E941F02DC017F
:1031F000CB018BA39CA3ADA3BEA36BA17CA18DA18E
:103200009EA120E030E040E85FE30E94790388233C
:103210002CF481E090E09AA389A33FC06BA17CA12C
:103220008DA19EA120E03FEF4FE757E40E941903D4
:1032300018164CF56FA178A589A59AA520E030E075
:1032400040E251E40E941F02DC01CB01BC01CD0130
:103250000E944900DC01CB019AA389A30FC088EC2E
:1032600090E098A38F8F8F8D98A10197F1F798A385
:103270008F8F89A19AA101979AA389A389A19AA165
:10328000009769F714C06BA17CA18DA19EA10E943B
:103290004900DC01CB019AA389A389A19AA19E8F41
:1032A0008D8F8D8D9E8D0197F1F79E8F8D8F8BA5C4
:1032B0009CA568E30E94791880E090E0A0E8BFE355
:1032C000898F9A8FAB8FBC8F698D7A8D8B8D9C8DFA
:1032D00020E030E04AEF54E40E941F02DC01CB0101
:1032E0008D8B9E8BAF8BB88F6D897E898F89988DE2
:1032F00020E030E040E85FE30E94790388232CF46B
:1033000081E090E09C8B8B8B3FC06D897E898F899B
:10331000988D20E03FEF4FE757E40E9419031816FD
:103320004CF5698D7A8D8B8D9C8D20E030E040E2EC
:1033300051E40E941F02DC01CB01BC01CD010E94BF
:103340004900DC01CB019C8B8B8B0FC088EC90E09B
:103350009A8B898B89899A890197F1F79A8B898B46
:103360008B899C8901979C8B8B8B8B899C8900977F
:1033700069F714C06D897E898F89988D0E944900F4
:10338000DC01CB019C8B8B8B8B899C89988B8F87E5
:103390008F8598890197F1F7988B8F878BA59CA5CE
:1033A0006CE00E94791880E090E0A0E8BFE38B8792
:1033B0009C87AD87BE876B857C858D859E8520E04B
:1033C00030E04AEF54E40E941F02DC01CB018F83FE
:1033D0009887A987BA876F81788589859A8520E043
:1033E00030E040E85FE30E94790388232CF481E019
:1033F00090E09E838D833FC06F81788589859A8513
:1034000020E03FEF4FE757E40E94190318164CF5F0
:103410006B857C858D859E8520E030E040E251E41F
:103420000E941F02DC01CB01BC01CD010E944900BA
:10343000DC01CB019E838D830FC088EC90E09C83E0
:103440008B838B819C810197F1F79C838B838D818A
:103450009E8101979E838D838D819E81009769F760
:1034600014C06F81788589859A850E944900DC01A6
:10347000CB019E838D838D819E819A8389838981EF
:103480009A810197F1F79A8389838BA59CA561E0C6
:103490000E947918AC960FB6F894DEBF0FBECDBF70
:1034A000CF91DF910895DF93CF9300D000D00F929A
:1034B000CDB7DEB79B838A837D836C83198211C06D
:1034C0008981282F30E08C819D81FC01E20FF31F60
:1034D00020818A819B81622F0E949C1889818F5F45
:1034E00089838981282F30E08C819D81FC01E20F46
:1034F000F31F8081882321F70F900F900F900F907A
:103500000F90CF91DF9108950F931F93DF93CF9387
:10351000CDB7DEB76A970FB6F894DEBF0FBECDBF4A
:10352000988F8F8B7A8F698FE98DFA8D8081918149
:103530008A30910560F4E98DFA8D80819181282F80
:10354000205D8F89988D622F0E949C1864C0E98D40
:10355000FA8D808191818A30910508F45CC01E82C9
:10356000E98DFA8D80819181CC01A0E0B0E08A8361
:103570009B83AC83BD832DC08E81082F10E08A8190
:103580009B81AC81BD812AE030E040E050E0BC018D
:10359000CD010E940D23DC01CB01282FCE0107961F
:1035A000FC01E00FF11F20838A819B81AC81BD81EA
:1035B0002AE030E040E050E0BC01CD010E940D2344
:1035C000DA01C9018A839B83AC83BD838E818F5FBF
:1035D0008E838A819B81AC81BD810097A105B10555
:1035E00059F68E81815089838981282F30E0CE0160
:1035F0000796FC01E20FF31F8081282F205D8F8941
:10360000988D622F0E949C188981882321F08981DE
:1036100081508983E9CF6A960FB6F894DEBF0FBE5A
:10362000CDBFCF91DF911F910F910895DF93CF937D
:1036300000D000D000D0CDB7DEB79A8389836B83EA
:103640004C838B81282F30E03E832D838D819E819A
:10365000009731F02D813E812130310551F011C0AC
:103660008C81282F205889819A81622F0E94791895
:1036700008C08C81282F205489819A81622F0E9452
:10368000791826960FB6F894DEBF0FBECDBFCF9146
:10369000DF910895DF93CF93CDB7DEB761970FB673
:1036A000F894DEBF0FBECDBF8FEF898B188AADC0F7
:1036B00083E0688940E00E946D111F869AC08F8563
:1036C000982F9C5F83E0692F0E948713882309F05D
:1036D0008DC08F85982F9C5F83E0692F0E94871390
:1036E0008823B9F380E090E0A0E2B1E48B879C8767
:1036F000AD87BE876B857C858D859E8520E030E01B
:103700004AEF54E40E941F02DC01CB018F839887AB
:10371000A987BA876F81788589859A8520E030E00E
:1037200040E85FE30E94790388232CF481E090E075
:103730009E838D833FC06F81788589859A8520E03F
:103740003FEF4FE757E40E94190318164CF56B85BD
:103750007C858D859E8520E030E040E251E40E942A
:103760001F02DC01CB01BC01CD010E944900DC013C
:10377000CB019E838D830FC088EC90E09C838B836C
:103780008B819C810197F1F79C838B838D819E8136
:1037900001979E838D838D819E81009769F714C068
:1037A0006F81788589859A850E944900DC01CB016B
:1037B0009E838D838D819E819A83898389819A815D
:1037C0000197F1F79A8389838889482F50E08F8584
:1037D000282F30E0CA01880F991F880F991F820F88
:1037E000931FFC01E255FF4F8081898B8F858F5F8E
:1037F0008F878F85843008F462CF83E0688941E049
:103800000E946D1188898F5F888B8889843008F4C5
:103810004FCF898961960FB6F894DEBF0FBECDBF3A
:10382000CF91DF910895DF93CF93CDB7DEB783E0DB
:103830006FE00E940B1483E06FEF0E945614CF914B
:10384000DF9108951F920F920FB60F9211248F935C
:103850009F93EF93FF93DF93CF93CDB7DEB7ECE465
:10386000F0E08EEE95E8918380838091D5008F5FA4
:103870008093D5008091D5008A3038F01092D50021
:103880008091D6008F5F8093D6008091D6008630DD
:1038900048F01092D5001092D6008091D7008F5F2B
:1038A0008093D7008091D7008A3058F01092D500CD
:1038B0001092D6001092D7008091D8008F5F80932D
:1038C000D8008091D800863068F01092D500109210
:1038D000D6001092D7001092D8008091D9008F5F47
:1038E0008093D9008091D9008A3078F01092D50069
:1038F0001092D6001092D7001092D8001092D900E2
:103900008091DA008F5F8093DA008091DA00823054
:1039100080F08091D900843060F01092D500109230
:10392000D6001092D7001092D8001092D9001092B1
:10393000DA00CF91DF91FF91EF919F918F910F90DE
:103940000FBE0F901F9018951F920F920FB60F92F7
:103950001124DF93CF93CDB7DEB71092D50010922C
:10396000D6001092D7001092D8001092D900109271
:10397000DA00CF91DF910F900FBE0F901F90189536
:103980001F920F920FB60F9211248F93AF93BF9394
:10399000EF93FF93DF93CF93CDB7DEB7AEE4B0E004
:1039A000EEE4F0E080818B7F8C93AEE4B0E0EEE457
:1039B000F0E080818D7F8C93AEE4B0E0EEE4F0E047
:1039C00080818E7F8C93CF91DF91FF91EF91BF919A
:1039D000AF918F910F900FBE0F901F9018951F926F
:1039E0000F920FB60F9211248F93AF93BF93EF9363
:1039F000FF93DF93CF93CDB7DEB7AEE4B0E0EEE454
:103A0000F0E0808184608C93AEE4B0E0EEE4F0E01E
:103A100080818D7F8C93AEE4B0E0EEE4F0E08081B5
:103A20008E7F8C93CF91DF91FF91EF91BF91AF91FA
:103A30008F910F900FBE0F901F901895DF93CF932B
:103A4000CDB7DEB7C857D0400FB6F894DEBF0FBE73
:103A5000CDBFCE0104966D969FAF8EAF6D97EFEC04
:103A6000F0E06F96FFAFEEAF6F97F5E0A096FFAF77
:103A7000A0976F96EEADFFAD6F9700806F968EADFD
:103A80009FAD6F9701966F969FAF8EAF6F976D96B4
:103A9000EEADFFAD6D9700826D968EAD9FAD6D97CB
:103AA00001966D969FAF8EAF6D97A0969FADA09734
:103AB0009150A0969FAFA097A096EFADA097EE2350
:103AC000C1F683E0898782E08A8783E08B8783E081
:103AD0008C8781E08D8782E08E8788EC90E00E9461
:103AE000C5160E94131C8AEC90E00E94BF18CE01FC
:103AF00009960E949016CE010B960E949016CE0158
:103B00000D960E9490160E94051080E062E00E94CF
:103B1000211081E062E00E94211082E062E00E94B8
:103B20002110CE0104960E94600980E06FEF0E9490
:103B30000B14ECE4F0E08EEE95E8918380831B8219
:103B40008091DA009091D9002091D8003091D7006F
:103B50004091D6005091D5008F87988B298B3A8B56
:103B60004B8B5C8BCE014596A2969FAF8EAFA297F2
:103B7000E0E6F0E0A496FFAFEEAFA497F8E0A596DC
:103B8000FFAFA597A496EEADFFADA4970080A496D5
:103B90008EAD9FADA4970196A4969FAF8EAFA497CC
:103BA000A296EEADFFADA2970082A2968EAD9FAD1C
:103BB000A2970196A2969FAF8EAFA297A5969FADB2
:103BC000A5979150A5969FAFA597A596EFADA59700
:103BD000EE23C1F6CE014D96A7969FAF8EAFA79765
:103BE000E8E6F0E0A996FFAFEEAFA997FEE0AA964F
:103BF000FFAFAA97A996EEADFFADA9970080A99651
:103C00008EAD9FADA9970196A9969FAF8EAFA9974C
:103C1000A796EEADFFADA7970082A7968EAD9FAD9C
:103C2000A7970196A7969FAF8EAFA797AA969FAD2D
:103C3000AA979150AA969FAFAA97AA96EFADAA9776
:103C4000EE23C1F6CE018B96AC969FAF8EAFAC97AC
:103C5000E6E7F0E0AE96FFAFEEAFAE97FFE0AF96CF
:103C6000FFAFAF97AE96EEADFFADAE970080AE96CC
:103C70008EAD9FADAE970196AE969FAF8EAFAE97CD
:103C8000AC96EEADFFADAC970082AC968EAD9FAD1D
:103C9000AC970196AC969FAF8EAFAC97AF969FADA9
:103CA000AF979150AF969FAFAF97AF96EFADAF97ED
:103CB000EE23C1F6CE01CA96E1969FAF8EAFE19793
:103CC000E5E8F0E0E396FFAFEEAFE397FFE0E496C0
:103CD000FFAFE497E396EEADFFADE3970080E39688
:103CE0008EAD9FADE3970196E3969FAF8EAFE397BE
:103CF000E196EEADFFADE1970082E1968EAD9FAD0E
:103D0000E1970196E1969FAF8EAFE197E4969FAD64
:103D1000E4979150E4969FAFE497E496EFADE49773
:103D2000EE23C1F6CE01875B9F4FE6969FAF8EAF25
:103D3000E69784E990E0E8969FAF8EAFE89792E12E
:103D4000E9969FAFE997E896EEADFFADE897008062
:103D5000E8968EAD9FADE8970196E8969FAF8EAF3F
:103D6000E897E696EEADFFADE6970082E6968EAD5B
:103D70009FADE6970196E6969FAF8EAFE697E996E0
:103D80009FADE9979150E9969FAFE997E996EFAD1E
:103D9000E997EE23C1F68AEC90E09E012B5E3F4F3F
:103DA000B9010E94531A0E944A1B9A838983898110
:103DB0009A818F3F9105B9F389819A818530910568
:103DC00009F07BC0AEE4B0E0EEE4F0E080818B7FF0
:103DD0008C93AEE4B0E0EEE4F0E080818D7F8C93D4
:103DE000AEE4B0E0EEE4F0E080818E7F8C938AEC6C
:103DF00090E061E00E9479188AEC90E09E01255DD8
:103E00003F4FB9010E94531A8AEC90E061E040E014
:103E10000E94161B8AEC90E09E01235E3F4FB90181
:103E20000E94531A0E94FA2243C00E947B1F0E94E4
:103E30004A1B9A83898389819A818F3F9105B9F3BF
:103E400089819A818F3F910581F189819A818A3098
:103E5000910558F58B81282F30E04981CE010F96CE
:103E6000FC01E20FF31F40838B818F5F8B831DC0AA
:103E7000ECE4F0E08EEE95E891838083AEE4B0E070
:103E8000EEE4F0E0808184608C93AEE4B0E0EEE498
:103E9000F0E080818D7F8C93AEE4B0E0EEE4F0E062
:103EA00080818E7F8C930E947B1F8B81863001F3F3
:103EB0008B81863008F4B9CF76CF89819A8186309C
:103EC000910509F070CF8AEC90E061E00E947918CA
:103ED0008AEC90E09E01265C3F4FB9010E94531A84
:103EE0000E94FA220E947B1F0E944A1B8530910586
:103EF00009F459CFF7CF0F931F93DF93CF93CDB72B
:103F0000DEB7C455D0400FB6F894DEBF0FBECDBFAC
:103F100080E06EEF0E9456148091D500882F90E0CB
:103F2000FC01E254FF4F208188EC90E0622F0E9458
:103F3000D716FE01EF5AFF4F80E090E0A0E0BFE30C
:103F400080839183A283B3838E01035B1F4FFE01A5
:103F5000EF5AFF4F608171818281938120E030E0D0
:103F60004AEF54E40E941F02DC01CB01F801808378
:103F70009183A283B383FE01E35BFF4F6081718174
:103F80008281938120E030E040E85FE30E94790382
:103F9000882344F4FE01E55BFF4F81E090E09183CC
:103FA000808364C0FE01E35BFF4F60817181828189
:103FB000938120E03FEF4FE757E40E941903181662
:103FC0000CF043C0FE01EF5AFF4F60817181828186
:103FD000938120E030E040E251E40E941F02DC01C6
:103FE000CB018E01055B1F4FBC01CD010E94490032
:103FF000DC01CB01F801918380831FC0FE01E75BE8
:10400000FF4F88EC90E091838083FE01E75BFF4FD8
:10401000808191810197F1F7FE01E75BFF4F91836A
:104020008083DE01A55BBF4FFE01E55BFF4F808112
:104030009181019711969C938E93FE01E55BFF4F52
:10404000808191810097D1F627C08E01055B1F4FBB
:10405000FE01E35BFF4F60817181828193810E9449
:104060004900DC01CB01F80191838083DE01A95B6B
:10407000BF4FFE01E55BFF4F808191818D939C9343
:10408000FE01E95BFF4F808191810197F1F7FE010D
:10409000E95BFF4F9183808380E06DEF0E945614AF
:1040A0008091D600882F90E0FC01E254FF4F2081E0
:1040B00088EC90E0622F0E94D716FE01ED5BFF4F67
:1040C00080E090E0A0E0BFE380839183A283B3838C
:1040D0008E01015C1F4FFE01ED5BFF4F608171811E
:1040E0008281938120E030E04AEF54E40E941F0275
:1040F000DC01CB01F80180839183A283B383FE01AD
:10410000FF96608171818281938120E030E040E8F8
:104110005FE30E94790388232CF481E090E09EAF56
:104120008DAF46C0FE01FF966081718182819381CF
:1041300020E03FEF4FE757E40E941903181664F59B
:10414000FE01ED5BFF4F608171818281938120E0F0
:1041500030E040E251E40E941F02DC01CB01BC01CF
:10416000CD010E944900DC01CB019EAF8DAF0FC095
:1041700088EC90E09CAF8BAF8BAD9CAD0197F1F7D5
:104180009CAF8BAF8DAD9EAD01979EAF8DAF8DADCA
:104190009EAD009769F716C0FE01FF9660817181A0
:1041A000828193810E944900DC01CB019EAF8DAFDB
:1041B0008DAD9EAD9AAF89AF89AD9AAD0197F1F7FC
:1041C0009AAF89AF80E06BEF0E9456148091D700C0
:1041D000882F90E0FC01E254FF4F208188EC90E0B2
:1041E000622F0E94D71680E090E0A0E0BFE38DAB85
:1041F0009EABAFABB8AF6DA97EA98FA998AD20E0FB
:1042000030E04AEF54E40E941F02DC01CB0189AB8D
:104210009AABABABBCAB69A97AA98BA99CA920E0EE
:1042200030E040E85FE30E94790388232CF481E0CA
:1042300090E098AB8FA73FC069A97AA98BA99CA9E8
:1042400020E03FEF4FE757E40E94190318164CF5A2
:104250006DA97EA98FA998AD20E030E040E251E43D
:104260000E941F02DC01CB01BC01CD010E9449006C
:10427000DC01CB0198AB8FA70FC088EC90E09EA724
:104280008DA78DA59EA50197F1F79EA78DA78FA558
:1042900098A9019798AB8FA78FA598A9009769F760
:1042A00014C069A97AA98BA99CA90E944900DC01C4
:1042B000CB0198AB8FA78FA598A99CA78BA78BA59F
:1042C0009CA50197F1F79CA78BA780E067EF0E9460
:1042D00056148091D800882F90E0FC01E254FF4FE3
:1042E000208188EC90E0622F0E94D71680E090E059
:1042F000A0E0BFE38FA398A7A9A7BAA76FA178A54D
:1043000089A59AA520E030E04AEF54E40E941F02FC
:10431000DC01CB018BA39CA3ADA3BEA36BA17CA1AD
:104320008DA19EA120E030E040E85FE30E94790388
:1043300088232CF481E090E09AA389A33FC06BA16D
:104340007CA18DA19EA120E03FEF4FE757E40E94A2
:10435000190318164CF56FA178A589A59AA520E038
:1043600030E040E251E40E941F02DC01CB01BC01BD
:10437000CD010E944900DC01CB019AA389A30FC0A3
:1043800088EC90E098A38F8F8F8D98A10197F1F71B
:1043900098A38F8F89A19AA101979AA389A389A134
:1043A0009AA1009769F714C06BA17CA18DA19EA171
:1043B0000E944900DC01CB019AA389A389A19AA19B
:1043C0009E8F8D8F8D8D9E8D0197F1F79E8F8D8F96
:1043D00080E06FEE0E9456148091D900882F90E003
:1043E000FC01E254FF4F208188EC90E0622F0E9494
:1043F000D71680E090E0A0E0BFE3898F9A8FAB8F63
:10440000BC8F698D7A8D8B8D9C8D20E030E04AEFDA
:1044100054E40E941F02DC01CB018D8B9E8BAF8B7D
:10442000B88F6D897E898F89988D20E030E040E8D3
:104430005FE30E94790388232CF481E090E09C8B59
:104440008B8B3FC06D897E898F89988D20E03FEFEF
:104450004FE757E40E94190318164CF5698D7A8DC1
:104460008B8D9C8D20E030E040E251E40E941F02E1
:10447000DC01CB01BC01CD010E944900DC01CB0174
:104480009C8B8B8B0FC088EC90E09A8B898B8989F1
:104490009A890197F1F79A8B898B8B899C8901976F
:1044A0009C8B8B8B8B899C89009769F714C06D89D5
:1044B0007E898F89988D0E944900DC01CB019C8BFD
:1044C0008B8B8B899C89988B8F878F859889019797
:1044D000F1F7988B8F8780E06FED0E9456148091E2
:1044E000DA00882F90E0FC01E254FF4F208188EC35
:1044F00090E0622F0E94D71680E090E0A0E0BFE33A
:104500008B879C87AD87BE876B857C858D859E85D7
:1045100020E030E04AEF54E40E941F02DC01CB01AE
:104520008F839887A987BA876F81788589859A85CF
:1045300020E030E040E85FE30E94790388232CF418
:1045400081E090E09E838D833FC06F81788589856F
:104550009A8520E03FEF4FE757E40E9419031816B1
:104560004CF56B857C858D859E8520E030E040E2B2
:1045700051E40E941F02DC01CB01BC01CD010E946D
:104580004900DC01CB019E838D830FC088EC90E055
:104590009C838B838B819C810197F1F79C838B8318
:1045A0008D819E8101979E838D838D819E81009751
:1045B00069F714C06F81788589859A850E944900C2
:1045C000DC01CB019E838D838D819E819A838983BB
:1045D00089819A810197F1F79A838983CC5ADF4FB9
:1045E0000FB6F894DEBF0FBECDBFCF91DF911F9104
:1045F0000F910895DF93CF93CDB7DEB71092D5001A
:104600001092D6001092D7001092D8001092D900C4
:104610001092DA00CF91DF910895A1E21A2EAA1B21
:10462000BB1BFD010DC0AA1FBB1FEE1FFF1FA21762
:10463000B307E407F50720F0A21BB30BE40BF50B5F
:10464000661F771F881F991F1A9469F760957095E8
:10465000809590959B01AC01BD01CF0108952F92EB
:104660003F924F925F926F927F928F929F92AF9202
:10467000BF92CF92DF92EF92FF920F931F93CF934F
:10468000DF93CDB7DEB7CA1BDB0B0FB6F894DEBFE6
:104690000FBECDBF09942A88398848885F846E840C
:1046A0007D848C849B84AA84B984C884DF80EE8056
:1046B000FD800C811B81AA81B981CE0FD11D0FB65F
:1046C000F894DEBF0FBECDBFED010895F894FFCF83
:1046D00057656C636F6D6500536574207468652061
:1046E000636C6F636B0054686520436C6F636B2071
:1046F0006D6F6465005468652054696D6572206D46
:104700006F646500436C6B206D6F64653A50726531
:104710007373202B20000000000000000000070839
:1047200009250405062A0102032D6F003D2B3F06D3
:104730005B4F666D7D277F6F020101000700060059
:044740000000040071
:00000001FF
